8=FIX.4.4|9=76|35=A|34=1|49=CLIENT1|52=20170330-03:15:22.177|56=EXECUTOR|98=0|108=30|141=Y|10=139|8=FIX.4.4|9=58|35=0|34=2|49=CLIENT1|52=20170330-03:15:52.848|56=EXECUTOR|10=061|8=FIX.4.4|9=58|35=0|34=3|49=CLIENT1|52=20170330-03:16:22.882|56=EXECUTOR|10=058|8=FIX.4.4|9=58|35=0|34=4|49=CLIENT1|52=20170330-03:16:52.932|56=EXECUTOR|10=058|8=FIX.4.4|9=58|35=0|34=5|49=CLIENT1|52=20170330-03:17:22.960|56=EXECUTOR|10=058|8=FIX.4.4|9=58|35=0|34=6|49=CLIENT1|52=20170330-03:17:53.042|56=EXECUTOR|10=054|8=FIX.4.4|9=132|35=D|34=7|49=CLIENT1|52=20170330-03:18:02.044|56=EXECUTOR|11=1001|38=100|40=2|44=100.1|54=1|55=EURUSD|59=1|60=20170330-04:18:02.026|10=118|8=FIX.4.4|9=132|35=D|34=8|49=CLIENT1|52=20170330-03:18:15.349|56=EXECUTOR|11=1002|38=200|40=2|44=100.4|54=2|55=EURUSD|59=1|60=20170330-04:18:15.345|10=145|8=FIX.4.4|9=131|35=D|34=9|49=CLIENT1|52=20170330-03:18:27.128|56=EXECUTOR|11=1003|38=200|40=2|44=99.8|54=1|55=EURUSD|59=1|60=20170330-04:18:27.128|10=118|8=FIX.4.4|9=132|35=D|34=10|49=CLIENT1|52=20170330-03:18:46.981|56=EXECUTOR|11=1004|38=200|40=2|44=99.9|54=1|55=EURUSD|59=1|60=20170330-04:18:46.981|10=177|8=FIX.4.4|9=133|35=D|34=11|49=CLIENT1|52=20170330-03:18:59.322|56=EXECUTOR|11=1005|38=200|40=2|44=100.2|54=2|55=EURUSD|59=1|60=20170330-04:18:59.322|10=191|8=FIX.4.4|9=132|35=D|34=12|49=CLIENT1|52=20170330-03:19:17.648|56=EXECUTOR|11=1006|38=50|40=2|44=100.2|54=1|55=EURUSD|59=1|60=20170330-04:19:17.648|10=158|8=FIX.4.4|9=133|35=D|34=13|49=CLIENT1|52=20170330-03:19:32.553|56=EXECUTOR|11=1007|38=200|40=2|44=100.7|54=2|55=EURUSD|59=1|60=20170330-04:19:32.553|10=196|8=FIX.4.4|9=132|35=D|34=14|49=CLIENT1|52=20170330-03:19:47.959|56=EXECUTOR|11=1008|38=500|40=2|44=99.7|54=1|55=EURUSD|59=1|60=20170330-04:19:47.959|10=200|8=FIX.4.4|9=133|35=D|34=15|49=CLIENT1|52=20170330-03:19:58.732|56=EXECUTOR|11=1009|38=200|40=2|44=100.8|54=2|55=EURUSD|59=1|60=20170330-04:19:58.732|10=215|8=FIX.4.4|9=133|35=D|34=16|49=CLIENT1|52=20170330-03:20:13.358|56=EXECUTOR|11=1010|38=200|40=2|44=100.9|54=2|55=EURUSD|59=1|60=20170330-04:20:13.358|10=183|8=FIX.4.4|9=132|35=D|34=17|49=CLIENT1|52=20170330-03:20:25.224|56=EXECUTOR|11=1011|38=200|40=2|44=99.5|54=1|55=EURUSD|59=1|60=20170330-04:20:25.224|10=138|8=FIX.4.4|9=59|35=0|34=18|49=CLIENT1|52=20170330-03:20:55.294|56=EXECUTOR|10=111|8=FIX.4.4|9=59|35=0|34=19|49=CLIENT1|52=20170330-03:21:25.328|56=EXECUTOR|10=108|